{"abi":[{"type":"constructor","inputs":[],"stateMutability":"nonpayable"},{"type":"function","name":"Proposers","inputs":[{"name":"","type":"address","internalType":"address"}],"outputs":[{"name":"","type":"bool","internalType":"bool"}],"stateMutability":"view"},{"type":"function","name":"addProposer","inputs":[{"name":"_account","type":"address","internalType":"address"}],"outputs":[],"stateMutability":"nonpayable"},{"type":"function","name":"owner","inputs":[],"outputs":[{"name":"","type":"address","internalType":"address"}],"stateMutability":"view"},{"type":"function","name":"removeProposer","inputs":[{"name":"_account","type":"address","internalType":"address"}],"outputs":[],"stateMutability":"nonpayable"},{"type":"function","name":"renounceOwnership","inputs":[],"outputs":[],"stateMutability":"nonpayable"},{"type":"function","name":"transferOwnership","inputs":[{"name":"newOwner","type":"address","internalType":"address"}],"outputs":[],"stateMutability":"nonpayable"},{"type":"event","name":"OwnershipTransferred","inputs":[{"name":"previousOwner","type":"address","indexed":true,"internalType":"address"},{"name":"newOwner","type":"address","indexed":true,"internalType":"address"}],"anonymous":false},{"type":"event","name":"ProposerAdded","inputs":[{"name":"account","type":"address","indexed":true,"internalType":"address"}],"anonymous":false},{"type":"event","name":"ProposerRemoved","inputs":[{"name":"account","type":"address","indexed":true,"internalType":"address"}],"anonymous":false},{"type":"error","name":"OwnableInvalidOwner","inputs":[{"name":"owner","type":"address","internalType":"address"}]},{"type":"error","name":"OwnableUnauthorizedAccount","inputs":[{"name":"account","type":"address","internalType":"address"}]}],"bytecode":{"object":"0x608060405234801561001057600080fd5b50338061003757604051631e4fbdf760e01b81526000600482015260240160405180910390fd5b61004081610046565b50610096565b600080546001600160a01b038381166001600160a01b0319831681178455604051919092169283917f8be0079c531659141344cd1fd0a4f28419497f9722a3daafe3b4186f6b6457e09190a35050565b6102df806100a56000396000f3fe608060405234801561001057600080fd5b50600436106100625760003560e01c806309d632d314610067578063715018a61461007c5780638da5cb5b14610084578063ac3dcf87146100a4578063b03cd418146100d7578063f2fde38b146100ea575b600080fd5b61007a610075366004610279565b6100fd565b005b61007a61014e565b6000546040516001600160a01b0390911681526020015b60405180910390f35b6100c76100b2366004610279565b60016020526000908152604090205460ff1681565b604051901515815260200161009b565b61007a6100e5366004610279565b610162565b61007a6100f8366004610279565b6101b9565b6101056101fc565b6001600160a01b038116600081815260016020526040808220805460ff19169055517fbab6b194452fd4fa50e0ca09bf0f89976da30a2b92fdf91372ad1a176d81e3289190a250565b6101566101fc565b6101606000610229565b565b61016a6101fc565b6001600160a01b0381166000818152600160208190526040808320805460ff1916909217909155517f2bf05609716bc4b090ad0e99b47b91881c7517771259c625df05db7e9d8c81819190a250565b6101c16101fc565b6001600160a01b0381166101f057604051631e4fbdf760e01b8152600060048201526024015b60405180910390fd5b6101f981610229565b50565b6000546001600160a01b031633146101605760405163118cdaa760e01b81523360048201526024016101e7565b600080546001600160a01b038381166001600160a01b0319831681178455604051919092169283917f8be0079c531659141344cd1fd0a4f28419497f9722a3daafe3b4186f6b6457e09190a35050565b60006020828403121561028b57600080fd5b81356001600160a01b03811681146102a257600080fd5b939250505056fea2646970667358221220e5ad496816b700d29a33fe891d715bb661944883332775e03d57666fda8ec88f64736f6c63430008180033","linkReferences":{}},"methodIdentifiers":{"Proposers(address)":"ac3dcf87","addProposer(address)":"b03cd418","owner()":"8da5cb5b","removeProposer(address)":"09d632d3","renounceOwnership()":"715018a6","transferOwnership(address)":"f2fde38b"},"id":4}