{"abi":[{"type":"constructor","inputs":[{"name":"rewardTokenAddress","type":"address","internalType":"address"}],"stateMutability":"nonpayable"},{"type":"function","name":"addProposer","inputs":[{"name":"_proposer","type":"address","internalType":"address"}],"outputs":[],"stateMutability":"nonpayable"},{"type":"function","name":"addVoter","inputs":[{"name":"_voter","type":"address","internalType":"address"},{"name":"_projectId","type":"uint256","internalType":"uint256"}],"outputs":[],"stateMutability":"nonpayable"},{"type":"function","name":"allocateFunds","inputs":[{"name":"_projectId","type":"uint256","internalType":"uint256"},{"name":"_amount","type":"uint256","internalType":"uint256"}],"outputs":[],"stateMutability":"nonpayable"},{"type":"function","name":"getProject","inputs":[{"name":"projectId","type":"uint256","internalType":"uint256"}],"outputs":[{"name":"","type":"address","internalType":"address"},{"name":"","type":"string","internalType":"string"},{"name":"","type":"uint256","internalType":"uint256"}],"stateMutability":"view"},{"type":"function","name":"getTotalProjects","inputs":[],"outputs":[{"name":"","type":"uint256","internalType":"uint256"}],"stateMutability":"view"},{"type":"function","name":"owner","inputs":[],"outputs":[{"name":"","type":"address","internalType":"address"}],"stateMutability":"view"},{"type":"function","name":"projects","inputs":[{"name":"","type":"uint256","internalType":"uint256"}],"outputs":[{"name":"admin","type":"address","internalType":"address"},{"name":"description","type":"string","internalType":"string"},{"name":"votes","type":"uint256","internalType":"uint256"},{"name":"projectId","type":"uint256","internalType":"uint256"},{"name":"exists","type":"bool","internalType":"bool"}],"stateMutability":"view"},{"type":"function","name":"proposeProject","inputs":[{"name":"_description","type":"string","internalType":"string"}],"outputs":[],"stateMutability":"nonpayable"},{"type":"function","name":"proposers","inputs":[{"name":"","type":"address","internalType":"address"}],"outputs":[{"name":"","type":"bool","internalType":"bool"}],"stateMutability":"view"},{"type":"function","name":"renounceOwnership","inputs":[],"outputs":[],"stateMutability":"nonpayable"},{"type":"function","name":"totalProjects","inputs":[],"outputs":[{"name":"","type":"uint256","internalType":"uint256"}],"stateMutability":"view"},{"type":"function","name":"transferOwnership","inputs":[{"name":"newOwner","type":"address","internalType":"address"}],"outputs":[],"stateMutability":"nonpayable"},{"type":"function","name":"vote","inputs":[{"name":"_projectId","type":"uint256","internalType":"uint256"}],"outputs":[],"stateMutability":"nonpayable"},{"type":"event","name":"FundsAllocated","inputs":[{"name":"projectId","type":"uint256","indexed":true,"internalType":"uint256"},{"name":"amount","type":"uint256","indexed":false,"internalType":"uint256"}],"anonymous":false},{"type":"event","name":"OwnershipTransferred","inputs":[{"name":"previousOwner","type":"address","indexed":true,"internalType":"address"},{"name":"newOwner","type":"address","indexed":true,"internalType":"address"}],"anonymous":false},{"type":"event","name":"ProjectProposed","inputs":[{"name":"projectId","type":"uint256","indexed":false,"internalType":"uint256"},{"name":"admin","type":"address","indexed":true,"internalType":"address"},{"name":"description","type":"string","indexed":false,"internalType":"string"}],"anonymous":false},{"type":"event","name":"VoteCasted","inputs":[{"name":"voter","type":"address","indexed":true,"internalType":"address"},{"name":"projectId","type":"uint256","indexed":true,"internalType":"uint256"},{"name":"votes","type":"uint256","indexed":false,"internalType":"uint256"}],"anonymous":false},{"type":"error","name":"OwnableInvalidOwner","inputs":[{"name":"owner","type":"address","internalType":"address"}]},{"type":"error","name":"OwnableUnauthorizedAccount","inputs":[{"name":"account","type":"address","internalType":"address"}]}],"bytecode":{"object":"0x608060405268056bc75e2d63100000600355678ac7230489e8000060045534801561002957600080fd5b50604051610fd1380380610fd1833981016040819052610048916100ed565b338061006e57604051631e4fbdf760e01b81526000600482015260240160405180910390fd5b6100778161009d565b50600280546001600160a01b0319166001600160a01b039290921691909117905561011d565b600080546001600160a01b038381166001600160a01b0319831681178455604051919092169283917f8be0079c531659141344cd1fd0a4f28419497f9722a3daafe3b4186f6b6457e09190a35050565b6000602082840312156100ff57600080fd5b81516001600160a01b038116811461011657600080fd5b9392505050565b610ea58061012c6000396000f3fe608060405234801561001057600080fd5b50600436106100cf5760003560e01c80638da5cb5b1161008c578063b9f05f2f11610066578063b9f05f2f146101ad578063f0f3f2c8146101c0578063f20a4a7b146101e2578063f2fde38b146101f557600080fd5b80638da5cb5b146101765780639c361e4e14610191578063b03cd4181461019a57600080fd5b80630121b93f146100d4578063107046bd146100e95780631817749714610116578063328fb51014610149578063715018a61461015c578063812739a214610164575b600080fd5b6100e76100e2366004610a22565b610208565b005b6100fc6100f7366004610a22565b6103c8565b60405161010d959493929190610a81565b60405180910390f35b610139610124366004610ae0565b60066020526000908152604090205460ff1681565b604051901515815260200161010d565b6100e7610157366004610afb565b61048e565b6100e76105c7565b6001545b60405190815260200161010d565b6000546040516001600160a01b03909116815260200161010d565b61016860015481565b6100e76101a8366004610ae0565b6105db565b6100e76101bb366004610b1d565b610607565b6101d36101ce366004610a22565b610672565b60405161010d93929190610b47565b6100e76101f0366004610b91565b61076b565b6100e7610203366004610ae0565b6108fa565b60008181526005602052604090206004015460ff166102425760405162461bcd60e51b815260040161023990610c42565b60405180910390fd5b6000818152600560208181526040808420338552909201905290205460ff166102c35760405162461bcd60e51b815260206004820152602d60248201527f596f7520617265206e6f7420656c696769626c6520746f20766f746520666f7260448201526c081d1a1a5cc81c1c9bda9958dd609a1b6064820152608401610239565b6000818152600560205260409020600201546102e0906001610938565b600082815260056020818152604080842060028082019690965533808652930190915291829020805460ff1916905591546004805492516340c10f1960e01b81529081019390935260248301919091526001600160a01b0316906340c10f1990604401600060405180830381600087803b15801561035d57600080fd5b505af1158015610371573d6000803e3d6000fd5b5050506000828152600560205260409081902060020154905183925033917fcb87df07b1c304492bd875a5c8b98672eca500939412809ea229afef1d745188916103bd91815260200190565b60405180910390a350565b600560205260009081526040902080546001820180546001600160a01b0390921692916103f490610c72565b80601f016020809104026020016040519081016040528092919081815260200182805461042090610c72565b801561046d5780601f106104425761010080835404028352916020019161046d565b820191906000526020600020905b81548152906001019060200180831161045057829003601f168201915b50505050600283015460038401546004909401549293909290915060ff1685565b61049661095c565b60008281526005602052604090206004015460ff166104c75760405162461bcd60e51b815260040161023990610c42565b6000805b6001548110156105175760008181526005602052604090206004015460ff161561050f5760008181526005602052604090206002015461050c908390610938565b91505b6001016104cb565b506000838152600560205260408120600201549061053f836105398487610989565b906109bf565b6000868152600560205260408082205490519293506001600160a01b03169183156108fc0291849190818181858888f19350505050158015610585573d6000803e3d6000fd5b50847fa76702541970ac8a240a5f42c5a0d1558c299844949ec41fad31fac5444e5504826040516105b891815260200190565b60405180910390a25050505050565b6105cf61095c565b6105d960006109d2565b565b6105e361095c565b6001600160a01b03166000908152600660205260409020805460ff19166001179055565b61060f61095c565b60008181526005602052604090206004015460ff166106405760405162461bcd60e51b815260040161023990610c42565b60009081526005602081815260408084206001600160a01b03909516845293909101905220805460ff19166001179055565b600081815260056020526040812060040154606090829060ff166106a85760405162461bcd60e51b815260040161023990610c42565b6000848152600560205260409020805460028201546001830180546001600160a01b039093169290919082906106dd90610c72565b80601f016020809104026020016040519081016040528092919081815260200182805461070990610c72565b80156107565780601f1061072b57610100808354040283529160200191610756565b820191906000526020600020905b81548152906001019060200180831161073957829003601f168201915b50505050509150935093509350509193909250565b3360009081526006602052604090205460ff1615156001146107e15760405162461bcd60e51b815260206004820152602960248201527f596f7520617265206e6f7420656c696769626c6520746f2070726f706f73652060448201526818481c1c9bda9958dd60ba1b6064820152608401610239565b60018054600091826107f283610cc2565b90915550600081815260056020526040902080546001600160a01b031916331781559091506001016108248382610d2c565b506000818152600560205260408082206002808201939093556004908101805460ff19166001179055915460035491516340c10f1960e01b8152339381019390935260248301919091526001600160a01b0316906340c10f1990604401600060405180830381600087803b15801561089b57600080fd5b505af11580156108af573d6000803e3d6000fd5b50505050336001600160a01b03167f1d72ec84737bdc61e24a8a2a7bcdebf8fc82a8fe20fadfa412f6e91a1fdf05ed82846040516108ee929190610dec565b60405180910390a25050565b61090261095c565b6001600160a01b03811661092c57604051631e4fbdf760e01b815260006004820152602401610239565b610935816109d2565b50565b60006109448284610e0d565b90508281101561095657610956610e20565b92915050565b6000546001600160a01b031633146105d95760405163118cdaa760e01b8152336004820152602401610239565b60008260000361099b57506000610956565b6109a58284610e36565b9050816109b28483610e4d565b1461095657610956610e20565b60006109cb8284610e4d565b9392505050565b600080546001600160a01b038381166001600160a01b0319831681178455604051919092169283917f8be0079c531659141344cd1fd0a4f28419497f9722a3daafe3b4186f6b6457e09190a35050565b600060208284031215610a3457600080fd5b5035919050565b6000815180845260005b81811015610a6157602081850181015186830182015201610a45565b506000602082860101526020601f19601f83011685010191505092915050565b6001600160a01b038616815260a060208201819052600090610aa590830187610a3b565b6040830195909552506060810192909252151560809091015292915050565b80356001600160a01b0381168114610adb57600080fd5b919050565b600060208284031215610af257600080fd5b6109cb82610ac4565b60008060408385031215610b0e57600080fd5b50508035926020909101359150565b60008060408385031215610b3057600080fd5b610b3983610ac4565b946020939093013593505050565b6001600160a01b0384168152606060208201819052600090610b6b90830185610a3b565b9050826040830152949350505050565b634e487b7160e01b600052604160045260246000fd5b600060208284031215610ba357600080fd5b813567ffffffffffffffff80821115610bbb57600080fd5b818401915084601f830112610bcf57600080fd5b813581811115610be157610be1610b7b565b604051601f8201601f19908116603f01168101908382118183101715610c0957610c09610b7b565b81604052828152876020848701011115610c2257600080fd5b826020860160208301376000928101602001929092525095945050505050565b602080825260169082015275141c9bda9958dd08191bd95cc81b9bdd08195e1a5cdd60521b604082015260600190565b600181811c90821680610c8657607f821691505b602082108103610ca657634e487b7160e01b600052602260045260246000fd5b50919050565b634e487b7160e01b600052601160045260246000fd5b600060018201610cd457610cd4610cac565b5060010190565b601f821115610d27576000816000526020600020601f850160051c81016020861015610d045750805b601f850160051c820191505b81811015610d2357828155600101610d10565b5050505b505050565b815167ffffffffffffffff811115610d4657610d46610b7b565b610d5a81610d548454610c72565b84610cdb565b602080601f831160018114610d8f5760008415610d775750858301515b600019600386901b1c1916600185901b178555610d23565b600085815260208120601f198616915b82811015610dbe57888601518255948401946001909101908401610d9f565b5085821015610ddc5787850151600019600388901b60f8161c191681555b5050505050600190811b01905550565b828152604060208201526000610e056040830184610a3b565b949350505050565b8082018082111561095657610956610cac565b634e487b7160e01b600052600160045260246000fd5b808202811582820484141761095657610956610cac565b600082610e6a57634e487b7160e01b600052601260045260246000fd5b50049056fea26469706673582212202925b2d53edc718feaf7bc98b30be21262da3b5adaaf5b264b9a6239b5ef7e4564736f6c63430008180033","linkReferences":{}},"methodIdentifiers":{"addProposer(address)":"b03cd418","addVoter(address,uint256)":"b9f05f2f","allocateFunds(uint256,uint256)":"328fb510","getProject(uint256)":"f0f3f2c8","getTotalProjects()":"812739a2","owner()":"8da5cb5b","projects(uint256)":"107046bd","proposeProject(string)":"f20a4a7b","proposers(address)":"18177497","renounceOwnership()":"715018a6","totalProjects()":"9c361e4e","transferOwnership(address)":"f2fde38b","vote(uint256)":"0121b93f"},"id":7}