{"abi":[{"type":"constructor","inputs":[],"stateMutability":"nonpayable"},{"type":"function","name":"addProposer","inputs":[{"name":"_proposer","type":"address","internalType":"address"}],"outputs":[],"stateMutability":"nonpayable"},{"type":"function","name":"addVoter","inputs":[{"name":"_voter","type":"address","internalType":"address"},{"name":"_projectId","type":"uint256","internalType":"uint256"}],"outputs":[],"stateMutability":"nonpayable"},{"type":"function","name":"allocateFunds","inputs":[{"name":"_projectId","type":"uint256","internalType":"uint256"},{"name":"_amount","type":"uint256","internalType":"uint256"}],"outputs":[],"stateMutability":"nonpayable"},{"type":"function","name":"owner","inputs":[],"outputs":[{"name":"","type":"address","internalType":"address"}],"stateMutability":"view"},{"type":"function","name":"projects","inputs":[{"name":"","type":"uint256","internalType":"uint256"}],"outputs":[{"name":"admin","type":"address","internalType":"address"},{"name":"description","type":"string","internalType":"string"},{"name":"votes","type":"uint256","internalType":"uint256"},{"name":"projectId","type":"uint256","internalType":"uint256"},{"name":"exists","type":"bool","internalType":"bool"}],"stateMutability":"view"},{"type":"function","name":"proposeProject","inputs":[{"name":"_description","type":"string","internalType":"string"}],"outputs":[],"stateMutability":"nonpayable"},{"type":"function","name":"proposers","inputs":[{"name":"","type":"address","internalType":"address"}],"outputs":[{"name":"","type":"bool","internalType":"bool"}],"stateMutability":"view"},{"type":"function","name":"renounceOwnership","inputs":[],"outputs":[],"stateMutability":"nonpayable"},{"type":"function","name":"totalProjects","inputs":[],"outputs":[{"name":"","type":"uint256","internalType":"uint256"}],"stateMutability":"view"},{"type":"function","name":"transferOwnership","inputs":[{"name":"newOwner","type":"address","internalType":"address"}],"outputs":[],"stateMutability":"nonpayable"},{"type":"function","name":"vote","inputs":[{"name":"_projectId","type":"uint256","internalType":"uint256"}],"outputs":[],"stateMutability":"nonpayable"},{"type":"event","name":"FundsAllocated","inputs":[{"name":"projectId","type":"uint256","indexed":true,"internalType":"uint256"},{"name":"amount","type":"uint256","indexed":false,"internalType":"uint256"}],"anonymous":false},{"type":"event","name":"OwnershipTransferred","inputs":[{"name":"previousOwner","type":"address","indexed":true,"internalType":"address"},{"name":"newOwner","type":"address","indexed":true,"internalType":"address"}],"anonymous":false},{"type":"event","name":"ProjectProposed","inputs":[{"name":"projectId","type":"uint256","indexed":false,"internalType":"uint256"},{"name":"admin","type":"address","indexed":true,"internalType":"address"},{"name":"description","type":"string","indexed":false,"internalType":"string"}],"anonymous":false},{"type":"event","name":"VoteCasted","inputs":[{"name":"voter","type":"address","indexed":true,"internalType":"address"},{"name":"projectId","type":"uint256","indexed":true,"internalType":"uint256"}],"anonymous":false},{"type":"error","name":"OwnableInvalidOwner","inputs":[{"name":"owner","type":"address","internalType":"address"}]},{"type":"error","name":"OwnableUnauthorizedAccount","inputs":[{"name":"account","type":"address","internalType":"address"}]}],"bytecode":{"object":"0x608060405234801561001057600080fd5b50338061003757604051631e4fbdf760e01b81526000600482015260240160405180910390fd5b61004081610046565b50610096565b600080546001600160a01b038381166001600160a01b0319831681178455604051919092169283917f8be0079c531659141344cd1fd0a4f28419497f9722a3daafe3b4186f6b6457e09190a35050565b610c30806100a56000396000f3fe608060405234801561001057600080fd5b50600436106100a95760003560e01c80638da5cb5b116100715780638da5cb5b1461013e5780639c361e4e14610159578063b03cd41814610170578063b9f05f2f14610183578063f20a4a7b14610196578063f2fde38b146101a957600080fd5b80630121b93f146100ae578063107046bd146100c357806318177497146100f0578063328fb51014610123578063715018a614610136575b600080fd5b6100c16100bc3660046107e1565b6101bc565b005b6100d66100d13660046107e1565b6102ef565b6040516100e7959493929190610840565b60405180910390f35b6101136100fe36600461089f565b60036020526000908152604090205460ff1681565b60405190151581526020016100e7565b6100c16101313660046108ba565b6103b5565b6100c16104ef565b6000546040516001600160a01b0390911681526020016100e7565b61016260015481565b6040519081526020016100e7565b6100c161017e36600461089f565b610503565b6100c16101913660046108dc565b61052f565b6100c16101a436600461091c565b61059b565b6100c16101b736600461089f565b6106b9565b60008181526002602052604090206004015460ff166101f65760405162461bcd60e51b81526004016101ed906109cd565b60405180910390fd5b600081815260026020908152604080832033845260050190915290205460ff166102785760405162461bcd60e51b815260206004820152602d60248201527f596f7520617265206e6f7420656c696769626c6520746f20766f746520666f7260448201526c081d1a1a5cc81c1c9bda9958dd609a1b60648201526084016101ed565b600081815260026020819052604090912001546102969060016106f7565b6000828152600260208181526040808420928301949094553380845260059092019052828220805460ff1916905591518392917fd0e6c39f2e086dc49f1524b47725526a56945cd1ff661f37976f1725a1e5698691a350565b600260205260009081526040902080546001820180546001600160a01b03909216929161031b906109fd565b80601f0160208091040260200160405190810160405280929190818152602001828054610347906109fd565b80156103945780601f1061036957610100808354040283529160200191610394565b820191906000526020600020905b81548152906001019060200180831161037757829003601f168201915b50505050600283015460038401546004909401549293909290915060ff1685565b6103bd61071b565b60008281526002602052604090206004015460ff166103ee5760405162461bcd60e51b81526004016101ed906109cd565b6000805b60015481101561043f5760008181526002602052604090206004015460ff161561043757600081815260026020819052604090912001546104349083906106f7565b91505b6001016103f2565b5060008381526002602081905260408220015490610467836104618487610748565b9061077e565b6000868152600260205260408082205490519293506001600160a01b03169183156108fc0291849190818181858888f193505050501580156104ad573d6000803e3d6000fd5b50847fa76702541970ac8a240a5f42c5a0d1558c299844949ec41fad31fac5444e5504826040516104e091815260200190565b60405180910390a25050505050565b6104f761071b565b6105016000610791565b565b61050b61071b565b6001600160a01b03166000908152600360205260409020805460ff19166001179055565b61053761071b565b60008181526002602052604090206004015460ff166105685760405162461bcd60e51b81526004016101ed906109cd565b60009081526002602090815260408083206001600160a01b0390941683526005909301905220805460ff19166001179055565b3360009081526003602052604090205460ff1615156001146106115760405162461bcd60e51b815260206004820152602960248201527f596f7520617265206e6f7420656c696769626c6520746f2070726f706f73652060448201526818481c1c9bda9958dd60ba1b60648201526084016101ed565b600180546000918261062283610a4d565b90915550600081815260026020526040902080546001600160a01b031916331781559091506001016106548382610ab7565b50600081815260026020819052604080832091820192909255600401805460ff191660011790555133907f1d72ec84737bdc61e24a8a2a7bcdebf8fc82a8fe20fadfa412f6e91a1fdf05ed906106ad9084908690610b77565b60405180910390a25050565b6106c161071b565b6001600160a01b0381166106eb57604051631e4fbdf760e01b8152600060048201526024016101ed565b6106f481610791565b50565b60006107038284610b98565b90508281101561071557610715610bab565b92915050565b6000546001600160a01b031633146105015760405163118cdaa760e01b81523360048201526024016101ed565b60008260000361075a57506000610715565b6107648284610bc1565b9050816107718483610bd8565b1461071557610715610bab565b600061078a8284610bd8565b9392505050565b600080546001600160a01b038381166001600160a01b0319831681178455604051919092169283917f8be0079c531659141344cd1fd0a4f28419497f9722a3daafe3b4186f6b6457e09190a35050565b6000602082840312156107f357600080fd5b5035919050565b6000815180845260005b8181101561082057602081850181015186830182015201610804565b506000602082860101526020601f19601f83011685010191505092915050565b6001600160a01b038616815260a060208201819052600090610864908301876107fa565b6040830195909552506060810192909252151560809091015292915050565b80356001600160a01b038116811461089a57600080fd5b919050565b6000602082840312156108b157600080fd5b61078a82610883565b600080604083850312156108cd57600080fd5b50508035926020909101359150565b600080604083850312156108ef57600080fd5b6108f883610883565b946020939093013593505050565b634e487b7160e01b600052604160045260246000fd5b60006020828403121561092e57600080fd5b813567ffffffffffffffff8082111561094657600080fd5b818401915084601f83011261095a57600080fd5b81358181111561096c5761096c610906565b604051601f8201601f19908116603f0116810190838211818310171561099457610994610906565b816040528281528760208487010111156109ad57600080fd5b826020860160208301376000928101602001929092525095945050505050565b602080825260169082015275141c9bda9958dd08191bd95cc81b9bdd08195e1a5cdd60521b604082015260600190565b600181811c90821680610a1157607f821691505b602082108103610a3157634e487b7160e01b600052602260045260246000fd5b50919050565b634e487b7160e01b600052601160045260246000fd5b600060018201610a5f57610a5f610a37565b5060010190565b601f821115610ab2576000816000526020600020601f850160051c81016020861015610a8f5750805b601f850160051c820191505b81811015610aae57828155600101610a9b565b5050505b505050565b815167ffffffffffffffff811115610ad157610ad1610906565b610ae581610adf84546109fd565b84610a66565b602080601f831160018114610b1a5760008415610b025750858301515b600019600386901b1c1916600185901b178555610aae565b600085815260208120601f198616915b82811015610b4957888601518255948401946001909101908401610b2a565b5085821015610b675787850151600019600388901b60f8161c191681555b5050505050600190811b01905550565b828152604060208201526000610b9060408301846107fa565b949350505050565b8082018082111561071557610715610a37565b634e487b7160e01b600052600160045260246000fd5b808202811582820484141761071557610715610a37565b600082610bf557634e487b7160e01b600052601260045260246000fd5b50049056fea264697066735822122067def65e5ba4236a8b2714435ec8f5b7f4b3b3cfba0f75d4a24d5000ee3830ab64736f6c63430008180033","linkReferences":{}},"methodIdentifiers":{"addProposer(address)":"b03cd418","addVoter(address,uint256)":"b9f05f2f","allocateFunds(uint256,uint256)":"328fb510","owner()":"8da5cb5b","projects(uint256)":"107046bd","proposeProject(string)":"f20a4a7b","proposers(address)":"18177497","renounceOwnership()":"715018a6","totalProjects()":"9c361e4e","transferOwnership(address)":"f2fde38b","vote(uint256)":"0121b93f"},"id":3}