{"abi":[{"type":"constructor","inputs":[],"stateMutability":"nonpayable"},{"type":"function","name":"addProposer","inputs":[{"name":"_proposer","type":"address","internalType":"address"}],"outputs":[],"stateMutability":"nonpayable"},{"type":"function","name":"addVoter","inputs":[{"name":"_voter","type":"address","internalType":"address"},{"name":"_projectId","type":"uint256","internalType":"uint256"}],"outputs":[],"stateMutability":"nonpayable"},{"type":"function","name":"allocateFunds","inputs":[{"name":"_projectId","type":"uint256","internalType":"uint256"},{"name":"_amount","type":"uint256","internalType":"uint256"}],"outputs":[],"stateMutability":"nonpayable"},{"type":"function","name":"getProject","inputs":[{"name":"projectId","type":"uint256","internalType":"uint256"}],"outputs":[{"name":"","type":"address","internalType":"address"},{"name":"","type":"string","internalType":"string"},{"name":"","type":"uint256","internalType":"uint256"}],"stateMutability":"view"},{"type":"function","name":"getTotalProjects","inputs":[],"outputs":[{"name":"","type":"uint256","internalType":"uint256"}],"stateMutability":"view"},{"type":"function","name":"owner","inputs":[],"outputs":[{"name":"","type":"address","internalType":"address"}],"stateMutability":"view"},{"type":"function","name":"projects","inputs":[{"name":"","type":"uint256","internalType":"uint256"}],"outputs":[{"name":"admin","type":"address","internalType":"address"},{"name":"description","type":"string","internalType":"string"},{"name":"votes","type":"uint256","internalType":"uint256"},{"name":"projectId","type":"uint256","internalType":"uint256"},{"name":"exists","type":"bool","internalType":"bool"}],"stateMutability":"view"},{"type":"function","name":"proposeProject","inputs":[{"name":"_description","type":"string","internalType":"string"}],"outputs":[],"stateMutability":"nonpayable"},{"type":"function","name":"proposers","inputs":[{"name":"","type":"address","internalType":"address"}],"outputs":[{"name":"","type":"bool","internalType":"bool"}],"stateMutability":"view"},{"type":"function","name":"renounceOwnership","inputs":[],"outputs":[],"stateMutability":"nonpayable"},{"type":"function","name":"totalProjects","inputs":[],"outputs":[{"name":"","type":"uint256","internalType":"uint256"}],"stateMutability":"view"},{"type":"function","name":"transferOwnership","inputs":[{"name":"newOwner","type":"address","internalType":"address"}],"outputs":[],"stateMutability":"nonpayable"},{"type":"function","name":"vote","inputs":[{"name":"_projectId","type":"uint256","internalType":"uint256"}],"outputs":[],"stateMutability":"nonpayable"},{"type":"event","name":"FundsAllocated","inputs":[{"name":"projectId","type":"uint256","indexed":true,"internalType":"uint256"},{"name":"amount","type":"uint256","indexed":false,"internalType":"uint256"}],"anonymous":false},{"type":"event","name":"OwnershipTransferred","inputs":[{"name":"previousOwner","type":"address","indexed":true,"internalType":"address"},{"name":"newOwner","type":"address","indexed":true,"internalType":"address"}],"anonymous":false},{"type":"event","name":"ProjectProposed","inputs":[{"name":"projectId","type":"uint256","indexed":false,"internalType":"uint256"},{"name":"admin","type":"address","indexed":true,"internalType":"address"},{"name":"description","type":"string","indexed":false,"internalType":"string"}],"anonymous":false},{"type":"event","name":"VoteCasted","inputs":[{"name":"voter","type":"address","indexed":true,"internalType":"address"},{"name":"projectId","type":"uint256","indexed":true,"internalType":"uint256"},{"name":"votes","type":"uint256","indexed":false,"internalType":"uint256"}],"anonymous":false},{"type":"error","name":"OwnableInvalidOwner","inputs":[{"name":"owner","type":"address","internalType":"address"}]},{"type":"error","name":"OwnableUnauthorizedAccount","inputs":[{"name":"account","type":"address","internalType":"address"}]}],"bytecode":{"object":"0x608060405234801561001057600080fd5b50338061003757604051631e4fbdf760e01b81526000600482015260240160405180910390fd5b61004081610046565b50610096565b600080546001600160a01b038381166001600160a01b0319831681178455604051919092169283917f8be0079c531659141344cd1fd0a4f28419497f9722a3daafe3b4186f6b6457e09190a35050565b610dbd806100a56000396000f3fe608060405234801561001057600080fd5b50600436106100cf5760003560e01c80638da5cb5b1161008c578063b9f05f2f11610066578063b9f05f2f146101ad578063f0f3f2c8146101c0578063f20a4a7b146101e2578063f2fde38b146101f557600080fd5b80638da5cb5b146101765780639c361e4e14610191578063b03cd4181461019a57600080fd5b80630121b93f146100d4578063107046bd146100e95780631817749714610116578063328fb51014610149578063715018a61461015c578063812739a214610164575b600080fd5b6100e76100e236600461093a565b610208565b005b6100fc6100f736600461093a565b61034d565b60405161010d959493929190610999565b60405180910390f35b6101396101243660046109f8565b60036020526000908152604090205460ff1681565b604051901515815260200161010d565b6100e7610157366004610a13565b610413565b6100e761054d565b6001545b60405190815260200161010d565b6000546040516001600160a01b03909116815260200161010d565b61016860015481565b6100e76101a83660046109f8565b610561565b6100e76101bb366004610a35565b61058d565b6101d36101ce36600461093a565b6105f9565b60405161010d93929190610a5f565b6100e76101f0366004610aa9565b6106f4565b6100e76102033660046109f8565b610812565b60008181526002602052604090206004015460ff166102425760405162461bcd60e51b815260040161023990610b5a565b60405180910390fd5b600081815260026020908152604080832033845260050190915290205460ff166102c45760405162461bcd60e51b815260206004820152602d60248201527f596f7520617265206e6f7420656c696769626c6520746f20766f746520666f7260448201526c081d1a1a5cc81c1c9bda9958dd609a1b6064820152608401610239565b600081815260026020819052604090912001546102e2906001610850565b60008281526002602081815260408084208084019586553380865260059091018352818520805460ff19169055938690529181529254905190815283927fcb87df07b1c304492bd875a5c8b98672eca500939412809ea229afef1d745188910160405180910390a350565b600260205260009081526040902080546001820180546001600160a01b03909216929161037990610b8a565b80601f01602080910402602001604051908101604052809291908181526020018280546103a590610b8a565b80156103f25780601f106103c7576101008083540402835291602001916103f2565b820191906000526020600020905b8154815290600101906020018083116103d557829003601f168201915b50505050600283015460038401546004909401549293909290915060ff1685565b61041b610874565b60008281526002602052604090206004015460ff1661044c5760405162461bcd60e51b815260040161023990610b5a565b6000805b60015481101561049d5760008181526002602052604090206004015460ff16156104955760008181526002602081905260409091200154610492908390610850565b91505b600101610450565b50600083815260026020819052604082200154906104c5836104bf84876108a1565b906108d7565b6000868152600260205260408082205490519293506001600160a01b03169183156108fc0291849190818181858888f1935050505015801561050b573d6000803e3d6000fd5b50847fa76702541970ac8a240a5f42c5a0d1558c299844949ec41fad31fac5444e55048260405161053e91815260200190565b60405180910390a25050505050565b610555610874565b61055f60006108ea565b565b610569610874565b6001600160a01b03166000908152600360205260409020805460ff19166001179055565b610595610874565b60008181526002602052604090206004015460ff166105c65760405162461bcd60e51b815260040161023990610b5a565b60009081526002602090815260408083206001600160a01b0390941683526005909301905220805460ff19166001179055565b600081815260026020526040812060040154606090829060ff1661062f5760405162461bcd60e51b815260040161023990610b5a565b600084815260026020819052604090912080549181015460018201805492936001600160a01b031692909190829061066690610b8a565b80601f016020809104026020016040519081016040528092919081815260200182805461069290610b8a565b80156106df5780601f106106b4576101008083540402835291602001916106df565b820191906000526020600020905b8154815290600101906020018083116106c257829003601f168201915b50505050509150935093509350509193909250565b3360009081526003602052604090205460ff16151560011461076a5760405162461bcd60e51b815260206004820152602960248201527f596f7520617265206e6f7420656c696769626c6520746f2070726f706f73652060448201526818481c1c9bda9958dd60ba1b6064820152608401610239565b600180546000918261077b83610bda565b90915550600081815260026020526040902080546001600160a01b031916331781559091506001016107ad8382610c44565b50600081815260026020819052604080832091820192909255600401805460ff191660011790555133907f1d72ec84737bdc61e24a8a2a7bcdebf8fc82a8fe20fadfa412f6e91a1fdf05ed906108069084908690610d04565b60405180910390a25050565b61081a610874565b6001600160a01b03811661084457604051631e4fbdf760e01b815260006004820152602401610239565b61084d816108ea565b50565b600061085c8284610d25565b90508281101561086e5761086e610d38565b92915050565b6000546001600160a01b0316331461055f5760405163118cdaa760e01b8152336004820152602401610239565b6000826000036108b35750600061086e565b6108bd8284610d4e565b9050816108ca8483610d65565b1461086e5761086e610d38565b60006108e38284610d65565b9392505050565b600080546001600160a01b038381166001600160a01b0319831681178455604051919092169283917f8be0079c531659141344cd1fd0a4f28419497f9722a3daafe3b4186f6b6457e09190a35050565b60006020828403121561094c57600080fd5b5035919050565b6000815180845260005b818110156109795760208185018101518683018201520161095d565b506000602082860101526020601f19601f83011685010191505092915050565b6001600160a01b038616815260a0602082018190526000906109bd90830187610953565b6040830195909552506060810192909252151560809091015292915050565b80356001600160a01b03811681146109f357600080fd5b919050565b600060208284031215610a0a57600080fd5b6108e3826109dc565b60008060408385031215610a2657600080fd5b50508035926020909101359150565b60008060408385031215610a4857600080fd5b610a51836109dc565b946020939093013593505050565b6001600160a01b0384168152606060208201819052600090610a8390830185610953565b9050826040830152949350505050565b634e487b7160e01b600052604160045260246000fd5b600060208284031215610abb57600080fd5b813567ffffffffffffffff80821115610ad357600080fd5b818401915084601f830112610ae757600080fd5b813581811115610af957610af9610a93565b604051601f8201601f19908116603f01168101908382118183101715610b2157610b21610a93565b81604052828152876020848701011115610b3a57600080fd5b826020860160208301376000928101602001929092525095945050505050565b602080825260169082015275141c9bda9958dd08191bd95cc81b9bdd08195e1a5cdd60521b604082015260600190565b600181811c90821680610b9e57607f821691505b602082108103610bbe57634e487b7160e01b600052602260045260246000fd5b50919050565b634e487b7160e01b600052601160045260246000fd5b600060018201610bec57610bec610bc4565b5060010190565b601f821115610c3f576000816000526020600020601f850160051c81016020861015610c1c5750805b601f850160051c820191505b81811015610c3b57828155600101610c28565b5050505b505050565b815167ffffffffffffffff811115610c5e57610c5e610a93565b610c7281610c6c8454610b8a565b84610bf3565b602080601f831160018114610ca75760008415610c8f5750858301515b600019600386901b1c1916600185901b178555610c3b565b600085815260208120601f198616915b82811015610cd657888601518255948401946001909101908401610cb7565b5085821015610cf45787850151600019600388901b60f8161c191681555b5050505050600190811b01905550565b828152604060208201526000610d1d6040830184610953565b949350505050565b8082018082111561086e5761086e610bc4565b634e487b7160e01b600052600160045260246000fd5b808202811582820484141761086e5761086e610bc4565b600082610d8257634e487b7160e01b600052601260045260246000fd5b50049056fea26469706673582212201b6fb8a17d567bd6fb415e16146a86fefd5380a00300085a66d503054babccf864736f6c63430008180033","linkReferences":{}},"methodIdentifiers":{"addProposer(address)":"b03cd418","addVoter(address,uint256)":"b9f05f2f","allocateFunds(uint256,uint256)":"328fb510","getProject(uint256)":"f0f3f2c8","getTotalProjects()":"812739a2","owner()":"8da5cb5b","projects(uint256)":"107046bd","proposeProject(string)":"f20a4a7b","proposers(address)":"18177497","renounceOwnership()":"715018a6","totalProjects()":"9c361e4e","transferOwnership(address)":"f2fde38b","vote(uint256)":"0121b93f"},"id":3}