{"abi":[{"type":"constructor","inputs":[],"stateMutability":"nonpayable"},{"type":"function","name":"addProposer","inputs":[{"name":"_proposer","type":"address","internalType":"address"}],"outputs":[],"stateMutability":"nonpayable"},{"type":"function","name":"addVoter","inputs":[{"name":"_voter","type":"address","internalType":"address"},{"name":"_projectId","type":"uint256","internalType":"uint256"}],"outputs":[],"stateMutability":"nonpayable"},{"type":"function","name":"allocateFunds","inputs":[{"name":"_projectId","type":"uint256","internalType":"uint256"},{"name":"_amount","type":"uint256","internalType":"uint256"}],"outputs":[],"stateMutability":"nonpayable"},{"type":"function","name":"owner","inputs":[],"outputs":[{"name":"","type":"address","internalType":"address"}],"stateMutability":"view"},{"type":"function","name":"projects","inputs":[{"name":"","type":"uint256","internalType":"uint256"}],"outputs":[{"name":"admin","type":"address","internalType":"address"},{"name":"description","type":"string","internalType":"string"},{"name":"votes","type":"uint256","internalType":"uint256"},{"name":"exists","type":"bool","internalType":"bool"}],"stateMutability":"view"},{"type":"function","name":"proposeProject","inputs":[{"name":"_description","type":"string","internalType":"string"}],"outputs":[],"stateMutability":"nonpayable"},{"type":"function","name":"proposers","inputs":[{"name":"","type":"address","internalType":"address"}],"outputs":[{"name":"","type":"bool","internalType":"bool"}],"stateMutability":"view"},{"type":"function","name":"renounceOwnership","inputs":[],"outputs":[],"stateMutability":"nonpayable"},{"type":"function","name":"totalProjects","inputs":[],"outputs":[{"name":"","type":"uint256","internalType":"uint256"}],"stateMutability":"view"},{"type":"function","name":"transferOwnership","inputs":[{"name":"newOwner","type":"address","internalType":"address"}],"outputs":[],"stateMutability":"nonpayable"},{"type":"function","name":"vote","inputs":[{"name":"_projectId","type":"uint256","internalType":"uint256"}],"outputs":[],"stateMutability":"nonpayable"},{"type":"event","name":"FundsAllocated","inputs":[{"name":"projectId","type":"uint256","indexed":true,"internalType":"uint256"},{"name":"amount","type":"uint256","indexed":false,"internalType":"uint256"}],"anonymous":false},{"type":"event","name":"OwnershipTransferred","inputs":[{"name":"previousOwner","type":"address","indexed":true,"internalType":"address"},{"name":"newOwner","type":"address","indexed":true,"internalType":"address"}],"anonymous":false},{"type":"event","name":"ProjectProposed","inputs":[{"name":"projectId","type":"uint256","indexed":false,"internalType":"uint256"},{"name":"admin","type":"address","indexed":true,"internalType":"address"},{"name":"description","type":"string","indexed":false,"internalType":"string"}],"anonymous":false},{"type":"event","name":"VoteCasted","inputs":[{"name":"voter","type":"address","indexed":true,"internalType":"address"},{"name":"projectId","type":"uint256","indexed":true,"internalType":"uint256"}],"anonymous":false},{"type":"error","name":"OwnableInvalidOwner","inputs":[{"name":"owner","type":"address","internalType":"address"}]},{"type":"error","name":"OwnableUnauthorizedAccount","inputs":[{"name":"account","type":"address","internalType":"address"}]}],"bytecode":{"object":"0x608060405234801561001057600080fd5b50338061003757604051631e4fbdf760e01b81526000600482015260240160405180910390fd5b61004081610046565b50610096565b600080546001600160a01b038381166001600160a01b0319831681178455604051919092169283917f8be0079c531659141344cd1fd0a4f28419497f9722a3daafe3b4186f6b6457e09190a35050565b610c21806100a56000396000f3fe608060405234801561001057600080fd5b50600436106100a95760003560e01c80638da5cb5b116100715780638da5cb5b1461013d5780639c361e4e14610158578063b03cd4181461016f578063b9f05f2f14610182578063f20a4a7b14610195578063f2fde38b146101a857600080fd5b80630121b93f146100ae578063107046bd146100c357806318177497146100ef578063328fb51014610122578063715018a614610135575b600080fd5b6100c16100bc3660046107d9565b6101bb565b005b6100d66100d13660046107d9565b6102ee565b6040516100e69493929190610838565b60405180910390f35b6101126100fd366004610890565b60036020526000908152604090205460ff1681565b60405190151581526020016100e6565b6100c16101303660046108ab565b6103ad565b6100c16104e7565b6000546040516001600160a01b0390911681526020016100e6565b61016160015481565b6040519081526020016100e6565b6100c161017d366004610890565b6104fb565b6100c16101903660046108cd565b610527565b6100c16101a336600461090d565b610593565b6100c16101b6366004610890565b6106b1565b60008181526002602052604090206003015460ff166101f55760405162461bcd60e51b81526004016101ec906109be565b60405180910390fd5b600081815260026020908152604080832033845260040190915290205460ff166102775760405162461bcd60e51b815260206004820152602d60248201527f596f7520617265206e6f7420656c696769626c6520746f20766f746520666f7260448201526c081d1a1a5cc81c1c9bda9958dd609a1b60648201526084016101ec565b600081815260026020819052604090912001546102959060016106ef565b6000828152600260208181526040808420928301949094553380845260049092019052828220805460ff1916905591518392917fd0e6c39f2e086dc49f1524b47725526a56945cd1ff661f37976f1725a1e5698691a350565b600260205260009081526040902080546001820180546001600160a01b03909216929161031a906109ee565b80601f0160208091040260200160405190810160405280929190818152602001828054610346906109ee565b80156103935780601f1061036857610100808354040283529160200191610393565b820191906000526020600020905b81548152906001019060200180831161037657829003601f168201915b50505050600283015460039093015491929160ff16905084565b6103b5610713565b60008281526002602052604090206003015460ff166103e65760405162461bcd60e51b81526004016101ec906109be565b6000805b6001548110156104375760008181526002602052604090206003015460ff161561042f576000818152600260208190526040909120015461042c9083906106ef565b91505b6001016103ea565b506000838152600260208190526040822001549061045f836104598487610740565b90610776565b6000868152600260205260408082205490519293506001600160a01b03169183156108fc0291849190818181858888f193505050501580156104a5573d6000803e3d6000fd5b50847fa76702541970ac8a240a5f42c5a0d1558c299844949ec41fad31fac5444e5504826040516104d891815260200190565b60405180910390a25050505050565b6104ef610713565b6104f96000610789565b565b610503610713565b6001600160a01b03166000908152600360205260409020805460ff19166001179055565b61052f610713565b60008181526002602052604090206003015460ff166105605760405162461bcd60e51b81526004016101ec906109be565b60009081526002602090815260408083206001600160a01b0390941683526004909301905220805460ff19166001179055565b3360009081526003602052604090205460ff1615156001146106095760405162461bcd60e51b815260206004820152602960248201527f596f7520617265206e6f7420656c696769626c6520746f2070726f706f73652060448201526818481c1c9bda9958dd60ba1b60648201526084016101ec565b600180546000918261061a83610a3e565b90915550600081815260026020526040902080546001600160a01b0319163317815590915060010161064c8382610aa8565b50600081815260026020819052604080832091820192909255600301805460ff191660011790555133907f1d72ec84737bdc61e24a8a2a7bcdebf8fc82a8fe20fadfa412f6e91a1fdf05ed906106a59084908690610b68565b60405180910390a25050565b6106b9610713565b6001600160a01b0381166106e357604051631e4fbdf760e01b8152600060048201526024016101ec565b6106ec81610789565b50565b60006106fb8284610b89565b90508281101561070d5761070d610b9c565b92915050565b6000546001600160a01b031633146104f95760405163118cdaa760e01b81523360048201526024016101ec565b6000826000036107525750600061070d565b61075c8284610bb2565b9050816107698483610bc9565b1461070d5761070d610b9c565b60006107828284610bc9565b9392505050565b600080546001600160a01b038381166001600160a01b0319831681178455604051919092169283917f8be0079c531659141344cd1fd0a4f28419497f9722a3daafe3b4186f6b6457e09190a35050565b6000602082840312156107eb57600080fd5b5035919050565b6000815180845260005b81811015610818576020818501810151868301820152016107fc565b506000602082860101526020601f19601f83011685010191505092915050565b6001600160a01b038516815260806020820181905260009061085c908301866107f2565b60408301949094525090151560609091015292915050565b80356001600160a01b038116811461088b57600080fd5b919050565b6000602082840312156108a257600080fd5b61078282610874565b600080604083850312156108be57600080fd5b50508035926020909101359150565b600080604083850312156108e057600080fd5b6108e983610874565b946020939093013593505050565b634e487b7160e01b600052604160045260246000fd5b60006020828403121561091f57600080fd5b813567ffffffffffffffff8082111561093757600080fd5b818401915084601f83011261094b57600080fd5b81358181111561095d5761095d6108f7565b604051601f8201601f19908116603f01168101908382118183101715610985576109856108f7565b8160405282815287602084870101111561099e57600080fd5b826020860160208301376000928101602001929092525095945050505050565b602080825260169082015275141c9bda9958dd08191bd95cc81b9bdd08195e1a5cdd60521b604082015260600190565b600181811c90821680610a0257607f821691505b602082108103610a2257634e487b7160e01b600052602260045260246000fd5b50919050565b634e487b7160e01b600052601160045260246000fd5b600060018201610a5057610a50610a28565b5060010190565b601f821115610aa3576000816000526020600020601f850160051c81016020861015610a805750805b601f850160051c820191505b81811015610a9f57828155600101610a8c565b5050505b505050565b815167ffffffffffffffff811115610ac257610ac26108f7565b610ad681610ad084546109ee565b84610a57565b602080601f831160018114610b0b5760008415610af35750858301515b600019600386901b1c1916600185901b178555610a9f565b600085815260208120601f198616915b82811015610b3a57888601518255948401946001909101908401610b1b565b5085821015610b585787850151600019600388901b60f8161c191681555b5050505050600190811b01905550565b828152604060208201526000610b8160408301846107f2565b949350505050565b8082018082111561070d5761070d610a28565b634e487b7160e01b600052600160045260246000fd5b808202811582820484141761070d5761070d610a28565b600082610be657634e487b7160e01b600052601260045260246000fd5b50049056fea26469706673582212202c62deb6cc60a165255b8567dc2d928b186ef51a2a5bac85b3043589a6620a6264736f6c63430008180033","linkReferences":{}},"methodIdentifiers":{"addProposer(address)":"b03cd418","addVoter(address,uint256)":"b9f05f2f","allocateFunds(uint256,uint256)":"328fb510","owner()":"8da5cb5b","projects(uint256)":"107046bd","proposeProject(string)":"f20a4a7b","proposers(address)":"18177497","renounceOwnership()":"715018a6","totalProjects()":"9c361e4e","transferOwnership(address)":"f2fde38b","vote(uint256)":"0121b93f"},"id":3}