{"abi":[{"type":"constructor","inputs":[],"stateMutability":"nonpayable"},{"type":"function","name":"addVoter","inputs":[{"name":"_voter","type":"address","internalType":"address"},{"name":"_projectId","type":"uint256","internalType":"uint256"}],"outputs":[],"stateMutability":"nonpayable"},{"type":"function","name":"allocateFunds","inputs":[{"name":"_projectId","type":"uint256","internalType":"uint256"},{"name":"_amount","type":"uint256","internalType":"uint256"}],"outputs":[],"stateMutability":"nonpayable"},{"type":"function","name":"getProject","inputs":[{"name":"projectId","type":"uint256","internalType":"uint256"}],"outputs":[{"name":"","type":"address","internalType":"address"},{"name":"","type":"string","internalType":"string"},{"name":"","type":"uint256","internalType":"uint256"}],"stateMutability":"view"},{"type":"function","name":"getTotalProjects","inputs":[],"outputs":[{"name":"","type":"uint256","internalType":"uint256"}],"stateMutability":"view"},{"type":"function","name":"owner","inputs":[],"outputs":[{"name":"","type":"address","internalType":"address"}],"stateMutability":"view"},{"type":"function","name":"projects","inputs":[{"name":"","type":"uint256","internalType":"uint256"}],"outputs":[{"name":"admin","type":"address","internalType":"address"},{"name":"description","type":"string","internalType":"string"},{"name":"votes","type":"uint256","internalType":"uint256"},{"name":"projectId","type":"uint256","internalType":"uint256"},{"name":"exists","type":"bool","internalType":"bool"}],"stateMutability":"view"},{"type":"function","name":"proposeProject","inputs":[{"name":"_description","type":"string","internalType":"string"}],"outputs":[],"stateMutability":"nonpayable"},{"type":"function","name":"proposers","inputs":[{"name":"","type":"address","internalType":"address"}],"outputs":[{"name":"","type":"bool","internalType":"bool"}],"stateMutability":"view"},{"type":"function","name":"renounceOwnership","inputs":[],"outputs":[],"stateMutability":"nonpayable"},{"type":"function","name":"totalProjects","inputs":[],"outputs":[{"name":"","type":"uint256","internalType":"uint256"}],"stateMutability":"view"},{"type":"function","name":"transferOwnership","inputs":[{"name":"newOwner","type":"address","internalType":"address"}],"outputs":[],"stateMutability":"nonpayable"},{"type":"function","name":"vote","inputs":[{"name":"_projectId","type":"uint256","internalType":"uint256"}],"outputs":[],"stateMutability":"nonpayable"},{"type":"event","name":"FundsAllocated","inputs":[{"name":"projectId","type":"uint256","indexed":true,"internalType":"uint256"},{"name":"amount","type":"uint256","indexed":false,"internalType":"uint256"}],"anonymous":false},{"type":"event","name":"OwnershipTransferred","inputs":[{"name":"previousOwner","type":"address","indexed":true,"internalType":"address"},{"name":"newOwner","type":"address","indexed":true,"internalType":"address"}],"anonymous":false},{"type":"event","name":"ProjectProposed","inputs":[{"name":"projectId","type":"uint256","indexed":false,"internalType":"uint256"},{"name":"admin","type":"address","indexed":true,"internalType":"address"},{"name":"description","type":"string","indexed":false,"internalType":"string"}],"anonymous":false},{"type":"event","name":"VoteCasted","inputs":[{"name":"voter","type":"address","indexed":true,"internalType":"address"},{"name":"projectId","type":"uint256","indexed":true,"internalType":"uint256"},{"name":"votes","type":"uint256","indexed":false,"internalType":"uint256"}],"anonymous":false},{"type":"error","name":"OwnableInvalidOwner","inputs":[{"name":"owner","type":"address","internalType":"address"}]},{"type":"error","name":"OwnableUnauthorizedAccount","inputs":[{"name":"account","type":"address","internalType":"address"}]}],"bytecode":{"object":"0x608060405234801561001057600080fd5b50338061003757604051631e4fbdf760e01b81526000600482015260240160405180910390fd5b61004081610046565b50610096565b600080546001600160a01b038381166001600160a01b0319831681178455604051919092169283917f8be0079c531659141344cd1fd0a4f28419497f9722a3daafe3b4186f6b6457e09190a35050565b610d63806100a56000396000f3fe608060405234801561001057600080fd5b50600436106100b45760003560e01c80638da5cb5b116100715780638da5cb5b1461015b5780639c361e4e14610176578063b9f05f2f1461017f578063f0f3f2c814610192578063f20a4a7b146101b4578063f2fde38b146101c757600080fd5b80630121b93f146100b9578063107046bd146100ce57806318177497146100fb578063328fb5101461012e578063715018a614610141578063812739a214610149575b600080fd5b6100cc6100c73660046108e0565b6101da565b005b6100e16100dc3660046108e0565b61031f565b6040516100f295949392919061093f565b60405180910390f35b61011e61010936600461099e565b60036020526000908152604090205460ff1681565b60405190151581526020016100f2565b6100cc61013c3660046109b9565b6103e5565b6100cc61051f565b6001545b6040519081526020016100f2565b6000546040516001600160a01b0390911681526020016100f2565b61014d60015481565b6100cc61018d3660046109db565b610533565b6101a56101a03660046108e0565b61059f565b6040516100f293929190610a05565b6100cc6101c2366004610a4f565b61069a565b6100cc6101d536600461099e565b6107b8565b60008181526002602052604090206004015460ff166102145760405162461bcd60e51b815260040161020b90610b00565b60405180910390fd5b600081815260026020908152604080832033845260050190915290205460ff166102965760405162461bcd60e51b815260206004820152602d60248201527f596f7520617265206e6f7420656c696769626c6520746f20766f746520666f7260448201526c081d1a1a5cc81c1c9bda9958dd609a1b606482015260840161020b565b600081815260026020819052604090912001546102b49060016107f6565b60008281526002602081815260408084208084019586553380865260059091018352818520805460ff19169055938690529181529254905190815283927fcb87df07b1c304492bd875a5c8b98672eca500939412809ea229afef1d745188910160405180910390a350565b600260205260009081526040902080546001820180546001600160a01b03909216929161034b90610b30565b80601f016020809104026020016040519081016040528092919081815260200182805461037790610b30565b80156103c45780601f10610399576101008083540402835291602001916103c4565b820191906000526020600020905b8154815290600101906020018083116103a757829003601f168201915b50505050600283015460038401546004909401549293909290915060ff1685565b6103ed61081a565b60008281526002602052604090206004015460ff1661041e5760405162461bcd60e51b815260040161020b90610b00565b6000805b60015481101561046f5760008181526002602052604090206004015460ff161561046757600081815260026020819052604090912001546104649083906107f6565b91505b600101610422565b5060008381526002602081905260408220015490610497836104918487610847565b9061087d565b6000868152600260205260408082205490519293506001600160a01b03169183156108fc0291849190818181858888f193505050501580156104dd573d6000803e3d6000fd5b50847fa76702541970ac8a240a5f42c5a0d1558c299844949ec41fad31fac5444e55048260405161051091815260200190565b60405180910390a25050505050565b61052761081a565b6105316000610890565b565b61053b61081a565b60008181526002602052604090206004015460ff1661056c5760405162461bcd60e51b815260040161020b90610b00565b60009081526002602090815260408083206001600160a01b0390941683526005909301905220805460ff19166001179055565b600081815260026020526040812060040154606090829060ff166105d55760405162461bcd60e51b815260040161020b90610b00565b600084815260026020819052604090912080549181015460018201805492936001600160a01b031692909190829061060c90610b30565b80601f016020809104026020016040519081016040528092919081815260200182805461063890610b30565b80156106855780601f1061065a57610100808354040283529160200191610685565b820191906000526020600020905b81548152906001019060200180831161066857829003601f168201915b50505050509150935093509350509193909250565b3360009081526003602052604090205460ff1615156001146107105760405162461bcd60e51b815260206004820152602960248201527f596f7520617265206e6f7420656c696769626c6520746f2070726f706f73652060448201526818481c1c9bda9958dd60ba1b606482015260840161020b565b600180546000918261072183610b80565b90915550600081815260026020526040902080546001600160a01b031916331781559091506001016107538382610bea565b50600081815260026020819052604080832091820192909255600401805460ff191660011790555133907f1d72ec84737bdc61e24a8a2a7bcdebf8fc82a8fe20fadfa412f6e91a1fdf05ed906107ac9084908690610caa565b60405180910390a25050565b6107c061081a565b6001600160a01b0381166107ea57604051631e4fbdf760e01b81526000600482015260240161020b565b6107f381610890565b50565b60006108028284610ccb565b90508281101561081457610814610cde565b92915050565b6000546001600160a01b031633146105315760405163118cdaa760e01b815233600482015260240161020b565b60008260000361085957506000610814565b6108638284610cf4565b9050816108708483610d0b565b1461081457610814610cde565b60006108898284610d0b565b9392505050565b600080546001600160a01b038381166001600160a01b0319831681178455604051919092169283917f8be0079c531659141344cd1fd0a4f28419497f9722a3daafe3b4186f6b6457e09190a35050565b6000602082840312156108f257600080fd5b5035919050565b6000815180845260005b8181101561091f57602081850181015186830182015201610903565b506000602082860101526020601f19601f83011685010191505092915050565b6001600160a01b038616815260a060208201819052600090610963908301876108f9565b6040830195909552506060810192909252151560809091015292915050565b80356001600160a01b038116811461099957600080fd5b919050565b6000602082840312156109b057600080fd5b61088982610982565b600080604083850312156109cc57600080fd5b50508035926020909101359150565b600080604083850312156109ee57600080fd5b6109f783610982565b946020939093013593505050565b6001600160a01b0384168152606060208201819052600090610a29908301856108f9565b9050826040830152949350505050565b634e487b7160e01b600052604160045260246000fd5b600060208284031215610a6157600080fd5b813567ffffffffffffffff80821115610a7957600080fd5b818401915084601f830112610a8d57600080fd5b813581811115610a9f57610a9f610a39565b604051601f8201601f19908116603f01168101908382118183101715610ac757610ac7610a39565b81604052828152876020848701011115610ae057600080fd5b826020860160208301376000928101602001929092525095945050505050565b602080825260169082015275141c9bda9958dd08191bd95cc81b9bdd08195e1a5cdd60521b604082015260600190565b600181811c90821680610b4457607f821691505b602082108103610b6457634e487b7160e01b600052602260045260246000fd5b50919050565b634e487b7160e01b600052601160045260246000fd5b600060018201610b9257610b92610b6a565b5060010190565b601f821115610be5576000816000526020600020601f850160051c81016020861015610bc25750805b601f850160051c820191505b81811015610be157828155600101610bce565b5050505b505050565b815167ffffffffffffffff811115610c0457610c04610a39565b610c1881610c128454610b30565b84610b99565b602080601f831160018114610c4d5760008415610c355750858301515b600019600386901b1c1916600185901b178555610be1565b600085815260208120601f198616915b82811015610c7c57888601518255948401946001909101908401610c5d565b5085821015610c9a5787850151600019600388901b60f8161c191681555b5050505050600190811b01905550565b828152604060208201526000610cc360408301846108f9565b949350505050565b8082018082111561081457610814610b6a565b634e487b7160e01b600052600160045260246000fd5b808202811582820484141761081457610814610b6a565b600082610d2857634e487b7160e01b600052601260045260246000fd5b50049056fea264697066735822122093aa60f9df5d6485ada8be6abae45d8d1226d91f94c86a9d66eb4c4542e0805964736f6c63430008180033","linkReferences":{}},"methodIdentifiers":{"addVoter(address,uint256)":"b9f05f2f","allocateFunds(uint256,uint256)":"328fb510","getProject(uint256)":"f0f3f2c8","getTotalProjects()":"812739a2","owner()":"8da5cb5b","projects(uint256)":"107046bd","proposeProject(string)":"f20a4a7b","proposers(address)":"18177497","renounceOwnership()":"715018a6","totalProjects()":"9c361e4e","transferOwnership(address)":"f2fde38b","vote(uint256)":"0121b93f"},"id":3}